{
  "contractName": "Protest",
  "abi": [
    {
      "inputs": [],
      "payable": false,
      "stateMutability": "nonpayable",
      "type": "constructor"
    },
    {
      "constant": true,
      "inputs": [],
      "name": "protestDataIpfsUrl",
      "outputs": [
        {
          "internalType": "string",
          "name": "",
          "type": "string"
        }
      ],
      "payable": false,
      "stateMutability": "view",
      "type": "function"
    },
    {
      "constant": true,
      "inputs": [],
      "name": "totalUsers",
      "outputs": [
        {
          "internalType": "uint256",
          "name": "",
          "type": "uint256"
        }
      ],
      "payable": false,
      "stateMutability": "view",
      "type": "function"
    },
    {
      "constant": true,
      "inputs": [
        {
          "internalType": "uint256",
          "name": "",
          "type": "uint256"
        }
      ],
      "name": "usersMapping",
      "outputs": [
        {
          "internalType": "uint256",
          "name": "id",
          "type": "uint256"
        },
        {
          "internalType": "string",
          "name": "encrypting_key",
          "type": "string"
        },
        {
          "internalType": "string",
          "name": "verifying_key",
          "type": "string"
        },
        {
          "internalType": "bool",
          "name": "access_allowed",
          "type": "bool"
        },
        {
          "internalType": "string",
          "name": "dataURL",
          "type": "string"
        },
        {
          "internalType": "string",
          "name": "notifURL",
          "type": "string"
        }
      ],
      "payable": false,
      "stateMutability": "view",
      "type": "function"
    },
    {
      "constant": false,
      "inputs": [
        {
          "internalType": "string",
          "name": "_encrypting_key",
          "type": "string"
        },
        {
          "internalType": "string",
          "name": "_verifying_key",
          "type": "string"
        },
        {
          "internalType": "string",
          "name": "_dataURL",
          "type": "string"
        }
      ],
      "name": "addUser",
      "outputs": [
        {
          "internalType": "uint256",
          "name": "",
          "type": "uint256"
        }
      ],
      "payable": false,
      "stateMutability": "nonpayable",
      "type": "function"
    },
    {
      "constant": false,
      "inputs": [
        {
          "internalType": "string",
          "name": "_protestDataIpfsUrl",
          "type": "string"
        }
      ],
      "name": "addProtests",
      "outputs": [],
      "payable": false,
      "stateMutability": "nonpayable",
      "type": "function"
    },
    {
      "constant": false,
      "inputs": [
        {
          "internalType": "string",
          "name": "_encrypting_key",
          "type": "string"
        },
        {
          "internalType": "uint256",
          "name": "_id",
          "type": "uint256"
        }
      ],
      "name": "getData",
      "outputs": [
        {
          "internalType": "string",
          "name": "",
          "type": "string"
        }
      ],
      "payable": false,
      "stateMutability": "nonpayable",
      "type": "function"
    },
    {
      "constant": false,
      "inputs": [],
      "name": "getProtestDataIpfsUrl",
      "outputs": [
        {
          "internalType": "string",
          "name": "",
          "type": "string"
        }
      ],
      "payable": false,
      "stateMutability": "nonpayable",
      "type": "function"
    }
  ],
  "bytecode": "0x608060405234801561001057600080fd5b50336000806101000a81548173ffffffffffffffffffffffffffffffffffffffff021916908373ffffffffffffffffffffffffffffffffffffffff160217905550610e7e806100606000396000f3fe608060405234801561001057600080fd5b506004361061007d5760003560e01c806395c5fed41161005b57806395c5fed414610440578063a2442eb51461063d578063bff1f9e1146106f8578063d091d9ff146107165761007d565b80633e33f2041461008257806385c2653b146101c057806389d0385c146103bd575b600080fd5b6101456004803603604081101561009857600080fd5b81019080803590602001906401000000008111156100b557600080fd5b8201836020820111156100c757600080fd5b803590602001918460018302840111640100000000831117156100e957600080fd5b91908080601f016020809104026020016040519081016040528093929190818152602001838380828437600081840152601f19601f82011690508083019250505050505050919291929080359060200190929190505050610799565b6040518080602001828103825283818151815260200191508051906020019080838360005b8381101561018557808201518184015260208101905061016a565b50505050905090810190601f1680156101b25780820380516001836020036101000a031916815260200191505b509250505060405180910390f35b6101ec600480360360208110156101d657600080fd5b81019080803590602001909291905050506108ef565b60405180878152602001806020018060200186151515158152602001806020018060200185810385528a818151815260200191508051906020019080838360005b8381101561024857808201518184015260208101905061022d565b50505050905090810190601f1680156102755780820380516001836020036101000a031916815260200191505b50858103845289818151815260200191508051906020019080838360005b838110156102ae578082015181840152602081019050610293565b50505050905090810190601f1680156102db5780820380516001836020036101000a031916815260200191505b50858103835287818151815260200191508051906020019080838360005b838110156103145780820151818401526020810190506102f9565b50505050905090810190601f1680156103415780820380516001836020036101000a031916815260200191505b50858103825286818151815260200191508051906020019080838360005b8381101561037a57808201518184015260208101905061035f565b50505050905090810190601f1680156103a75780820380516001836020036101000a031916815260200191505b509a505050505050505050505060405180910390f35b6103c5610b98565b6040518080602001828103825283818151815260200191508051906020019080838360005b838110156104055780820151818401526020810190506103ea565b50505050905090810190601f1680156104325780820380516001836020036101000a031916815260200191505b509250505060405180910390f35b6106276004803603606081101561045657600080fd5b810190808035906020019064010000000081111561047357600080fd5b82018360208201111561048557600080fd5b803590602001918460018302840111640100000000831117156104a757600080fd5b91908080601f016020809104026020016040519081016040528093929190818152602001838380828437600081840152601f19601f8201169050808301925050505050505091929192908035906020019064010000000081111561050a57600080fd5b82018360208201111561051c57600080fd5b8035906020019184600183028401116401000000008311171561053e57600080fd5b91908080601f016020809104026020016040519081016040528093929190818152602001838380828437600081840152601f19601f820116905080830192505050505050509192919290803590602001906401000000008111156105a157600080fd5b8201836020820111156105b357600080fd5b803590602001918460018302840111640100000000831117156105d557600080fd5b91908080601f016020809104026020016040519081016040528093929190818152602001838380828437600081840152601f19601f820116905080830192505050505050509192919290505050610c3a565b6040518082815260200191505060405180910390f35b6106f66004803603602081101561065357600080fd5b810190808035906020019064010000000081111561067057600080fd5b82018360208201111561068257600080fd5b803590602001918460018302840111640100000000831117156106a457600080fd5b91908080601f016020809104026020016040519081016040528093929190818152602001838380828437600081840152601f19601f820116905080830192505050505050509192919290505050610ce6565b005b610700610d00565b6040518082815260200191505060405180910390f35b61071e610d06565b6040518080602001828103825283818151815260200191508051906020019080838360005b8381101561075e578082015181840152602081019050610743565b50505050905090810190601f16801561078b5780820380516001836020036101000a031916815260200191505b509250505060405180910390f35b6060600115156002600084815260200190815260200160002060030160009054906101000a900460ff16151514610838576040517f08c379a00000000000000000000000000000000000000000000000000000000081526004018080602001828103825260138152602001807f416363657373206e6f74206772616e7465642e0000000000000000000000000081525060200191505060405180910390fd5b600260008381526020019081526020016000206004018054600181600116156101000203166002900480601f0160208091040260200160405190810160405280929190818152602001828054600181600116156101000203166002900480156108e25780601f106108b7576101008083540402835291602001916108e2565b820191906000526020600020905b8154815290600101906020018083116108c557829003601f168201915b5050505050905092915050565b6002602052806000526040600020600091509050806000015490806001018054600181600116156101000203166002900480601f0160208091040260200160405190810160405280929190818152602001828054600181600116156101000203166002900480156109a15780601f10610976576101008083540402835291602001916109a1565b820191906000526020600020905b81548152906001019060200180831161098457829003601f168201915b505050505090806002018054600181600116156101000203166002900480601f016020809104026020016040519081016040528092919081815260200182805460018160011615610100020316600290048015610a3f5780601f10610a1457610100808354040283529160200191610a3f565b820191906000526020600020905b815481529060010190602001808311610a2257829003601f168201915b5050505050908060030160009054906101000a900460ff1690806004018054600181600116156101000203166002900480601f016020809104026020016040519081016040528092919081815260200182805460018160011615610100020316600290048015610af05780601f10610ac557610100808354040283529160200191610af0565b820191906000526020600020905b815481529060010190602001808311610ad357829003601f168201915b505050505090806005018054600181600116156101000203166002900480601f016020809104026020016040519081016040528092919081815260200182805460018160011615610100020316600290048015610b8e5780601f10610b6357610100808354040283529160200191610b8e565b820191906000526020600020905b815481529060010190602001808311610b7157829003601f168201915b5050505050905086565b606060038054600181600116156101000203166002900480601f016020809104026020016040519081016040528092919081815260200182805460018160011615610100020316600290048015610c305780601f10610c0557610100808354040283529160200191610c30565b820191906000526020600020905b815481529060010190602001808311610c1357829003601f168201915b5050505050905090565b6000806002600060015481526020019081526020016000209050600154816000018190555084816001019080519060200190610c77929190610da4565b5083816002019080519060200190610c90929190610da4565b5060018160030160006101000a81548160ff02191690831515021790555082816004019080519060200190610cc6929190610da4565b506001806000828254019250508190555080600001549150509392505050565b8060039080519060200190610cfc929190610da4565b5050565b60015481565b60038054600181600116156101000203166002900480601f016020809104026020016040519081016040528092919081815260200182805460018160011615610100020316600290048015610d9c5780601f10610d7157610100808354040283529160200191610d9c565b820191906000526020600020905b815481529060010190602001808311610d7f57829003601f168201915b505050505081565b828054600181600116156101000203166002900490600052602060002090601f016020900481019282601f10610de557805160ff1916838001178555610e13565b82800160010185558215610e13579182015b82811115610e12578251825591602001919060010190610df7565b5b509050610e209190610e24565b5090565b610e4691905b80821115610e42576000816000905550600101610e2a565b5090565b9056fea265627a7a72315820fa8bd3d869a9941eee9e0d51db3e257a90acb02652746a3e916ecb910c32c72964736f6c63430005100032",
  "source": "pragma solidity ^0.5.0;\n\n\ncontract Protest {\n\n    address owner;\n\n    constructor() public{\n      owner = msg.sender;\n    }\n\n    struct User {\n        uint id;\n        string encrypting_key;\n        string verifying_key;\n        bool access_allowed;\n        string dataURL;\n        string notifURL;\n    }\n\n    uint public totalUsers;\n    \n    mapping(uint => User) public usersMapping;\n\n    string public protestDataIpfsUrl;\n    // string public notificationsIpfsUrl;\n\n\n    function addUser(string memory _encrypting_key, string memory _verifying_key, string memory _dataURL) public returns(uint){\n        User storage u = usersMapping[totalUsers];\n        u.id = totalUsers;\n        u.encrypting_key = _encrypting_key;\n        u.verifying_key = _verifying_key;\n        u.access_allowed = true;\n        u.dataURL = _dataURL;\n        totalUsers+=1;\n        return u.id;\n    }\n    \n    // function approveRequest(uint _id) public onlyOwner {\n    //   Request r = requestsMapping[_id];\n    //   user = r[_id];\n    //   user.access_allowed = true;\n    //   delete requestsMapping[_id];\n    // }\n\n    // function denyRequest(uint _id) public onlyOwner {\n    //   delete requestsMapping[_id];\n    // }\n\n    function addProtests(string memory _protestDataIpfsUrl) public {\n      protestDataIpfsUrl = _protestDataIpfsUrl;\n    }\n\n    function getData(string memory _encrypting_key, uint _id) public returns (string memory) {\n      require(usersMapping[_id].access_allowed == true, \n          \"Access not granted.\"\n        );\n      // require(compareStrings(usersMapping[_id].encrypting_key, _encrypting_key) == true,\n      //   \"Incorrect key\"\n      // );\n      return usersMapping[_id].dataURL;\n    }\n    // function compareStrings(string memory a, string memory b) public view returns (bool) {\n    //     return (keccak256(abi.encodePacked((a))) == keccak256(abi.encodePacked((b))));\n    // }\n    function getProtestDataIpfsUrl() public returns (string memory) {\n      return protestDataIpfsUrl;\n    }\n\n    // function addNote(string _notifURL) public {\n    //   notificationsIpfsUrl = _notifURL;\n\n    // }\n\n    // function getNotif(uint _id) returns (string memory){\n    //   return notificationsIpfsUrl;\n    // }\n\n    modifier onlyOwner {\n        require(\n            msg.sender == owner,\n            \"Only owner can call this function.\"\n        );\n        _;\n    }\n\n}",
  "sourcePath": "/Users/riyasingh/myapps/protests-client/contracts/Protest.sol",
  "compiler": {
    "name": "solc",
    "version": "0.5.16+commit.9c3226ce.Emscripten.clang"
  },
  "schemaVersion": "3.2.3",
  "updatedAt": "2020-11-09T17:43:08.181Z",
  "networkType": "ethereum",
  "devdoc": {
    "methods": {}
  },
  "userdoc": {
    "methods": {}
  }
}